:020000040800F2
:10000000E0070020D5010008771600086F160008E9
:10001000731600085D0500081119000800000000B3
:10002000000000000000000000000000A51600080D
:10003000610500080000000079160008A7160008F6
:10004000EF010008EF010008EF010008EF010008D0
:10005000EF010008EF010008EF010008EF010008C0
:10006000EF010008EF010008EF010008EF010008B0
:10007000EF010008EF010008EF010008EF010008A0
:10008000EF010008EF010008EF010008EF01000890
:10009000EF010008EF010008EF010008EF01000880
:1000A000EF010008EF010008EF010008EF01000870
:1000B000EF010008EF010008EF010008EF01000860
:1000C000EF010008EF010008EF010008EF01000850
:1000D000EF01000801190008EF010008EF01000816
:1000E000EF010008EF010008EF010008EF01000830
:1000F000EF010008EF010008EF010008EF01000820
:10010000EF010008EF010008EF010008EF0100080F
:10011000EF010008EF010008EF010008EF010008FF
:10012000EF010008EF010008EF010008EF010008EF
:1001300000F002F800F03FF80AA090E8000C8244BA
:100140008344AAF10107DA4501D100F034F8AFF297
:10015000090EBAE80F0013F0010F18BFFB1A43F0A5
:10016000010318473423000054230000103A24BF31
:1001700078C878C1FAD8520724BF30C830C144BF0C
:1001800004680C607047000000230024002500264E
:10019000103A28BF78C1FBD8520728BF30C148BFEA
:1001A0000B607047642900F07780002070471FB50E
:1001B0001FBD10B510BD00F09FF91146FFF7F7FF06
:1001C00001F0FCFE00F0BDF903B4FFF7F2FF03BC41
:1001D00001F0BCFB0948804709480047FEE7FEE7FD
:1001E000FEE7FEE7FEE7FEE7FEE7FEE7FEE7FEE7E7
:1001F00004480549054A064B70470000AF16000841
:1002000031010008E0010020E0070020E0030020A9
:10021000E0030020704700000FB4044910B503AAA2
:10022000029800F03BF910BC5DF814FB10000020B0
:100230002DE9F0410E460446002020622046E16888
:10024000884730B3252805D0D4E901219047206A9A
:10025000401CF2E7E168204600278847050018D0D7
:10026000A5F14100192802D820354FF40067324625
:10027000294620462760FFF795FF40B1012804D0AA
:10028000F61D26F007060836D8E7361DD6E72846BD
:10029000DAE7206ABDE8F0812DE9F0410646002446
:1002A00010687529314616A510D0AFF300800028DC
:1002B00002DA404213A507E031688A0701D512A58A
:1002C00002E0490704D511A5012401E0AFF3008045
:1002D00000210A2206F1240709E0B0FBF2FCB0FB82
:1002E000F2F302FB1C00303078541846491C0028F9
:1002F000F3D123462A463046BDE8F04100F074B8F9
:10030000000000002D0000002B0000002000000075
:100310004FF0000200B5134694469646203922BF9E
:10032000A0E80C50A0E80C50B1F12001BFF4F7AFE9
:10033000090728BFA0E80C5048BF0CC05DF804EBCB
:10034000890028BF40F8042B08BF704748BF20F839
:10035000022B11F0804F18BF00F8012B70470000EE
:100360004FF0013C50F8042B51F8043B9A4221D144
:10037000A2EB0C03934313EACC1317D150F8042BD0
:1003800051F8043B9A4215D1A2EB0C03934313EAB4
:10039000CC130BD150F8042B51F8043B9A4209D1ED
:1003A000A2EB0C03934313EACC13DBD04FF0000015
:1003B000704700BFD01A01BAB1FA81F101F01801FB
:1003C00022FA01F0CB40C1F12001DBB2C0B2C01A69
:1003D0002CFA01F3D11A914311EAC311E6D1704707
:1003E00070477047704770472DE9F0470D469946B2
:1003F0009246044600F124080168880604D5E069A5
:1004000021F01001216000E00120A84201DD471B1E
:1004100000E00027A1697A1902EB0900081AA0611F
:100420002078C00602D42046AFF30080002608E002
:10043000D4E901211AF806009047206A401C761C76
:1004400020624E45F4DB2078C0060AD52046AFF383
:10045000008006E0D4E9012130209047206A401C4A
:100460002062381EA7F10107F4DC07E0D4E901217E
:1004700018F805009047206A401C2062281EA5F14C
:100480000105F3DC2046AFF300802078000602D59A
:100490000220BDE8F0870120FBE70000074B70B5A4
:1004A0000D467B4400F011F80446284600F020F881
:1004B00010B14FF0FF3070BD204670BD171800001E
:1004C00001694A1C02610878704700B58FB0CDE918
:1004D00001310021059105497944CDE90310114608
:1004E0006846FFF7A5FE0FB000BD0000E5FFFFFF67
:1004F000007B00F080007047754600F02BF8AE4698
:1005000005006946534620F00700854618B020B51F
:10051000FFF76EFEBDE820404FF000064FF00007E9
:100520004FF000084FF0000B21F00701AC46ACE89B
:10053000C009ACE8C009ACE8C009ACE8C0098D4608
:10054000704710B50446AFF300802046BDE8104068
:10055000FFF73ABE004870477C01002000BFFEE76D
:100560007047000070B50446002594F82100022869
:1005700003D00420A0630125C1E02068006820F0BA
:100580000E00216808602068006820F001002168E2
:1005900008605C492068884252D95A4978392068F5
:1005A000884201D1012047E05649643920688842D9
:1005B00001D1102040E0534950392068884201D1D0
:1005C000801539E04F493C392068884201D18014B8
:1005D00032E04C4928392068884202D14FF48030FB
:1005E0002AE0484914392068884202D14FF480102B
:1005F00022E044492068884201D140041CE042497D
:100600002068884201D1012016E03F49143120685A
:10061000884201D110200FE03B49283120688842F0
:1006200001D1801508E038493C312068884201D169
:10063000801401E04FF480303349091F086051E015
:10064000304978392068884201D1012047E02D499E
:1006500064392068884201D1102040E0294950398E
:100660002068884201D1801539E026493C3920684C
:10067000884201D1801432E022492839206888421A
:1006800002D14FF480302AE01E4914392068884294
:1006900002D14FF4801022E01A492068884201D12B
:1006A00040041CE018492068884201D1012016E06E
:1006B000154914312068884201D110200FE01249F9
:1006C00028312068884201D1801508E00E493C316C
:1006D0002068884201D1801401E04FF4803009493C
:1006E00080394860012084F8210000BF002084F890
:1006F000200000BF606B10B12046616B8847284620
:1007000070BD000080000240080402402DE9F84757
:10071000024600239C467BE14FF0010808FA03F4EF
:10072000D1F8008008EA0400A0427DD1DFF8F4A2ED
:10073000D1F80480A8EB0A09D0453AD014DCB8F10E
:10074000030F50D009DCB8F1000F31D0B8F1010F20
:100750001CD0B8F1020F49D120E0B8F1110F18D028
:10076000B8F1120F42D11EE0B9F5881F25D006DC82
:10077000B9F5803F20D0B9F5801F37D11AE0B9F51F
:10078000001F18D0B9F5041F30D117E0D1F80CC004
:100790002DE0D1F80C8008F1040C28E0D1F80C8091
:1007A00008F1080C23E0D1F80C8008F10C0C1EE0D5
:1007B00000BF00BF00BF00BF00BF00BFD1F808806E
:1007C000B8F1000F02D14FF0040C0BE0D1F8088013
:1007D000B8F1010F03D14FF0080C146102E04FF0A3
:1007E000080C546103E04FF0000C00E000BF00BFB4
:1007F000FF2801D8904601E002F104084646FF2890
:1008000002D84FEA830803E0A3F108084FEA8808FA
:100810004746D6F800804FF00F0909FA07F928EA91
:1008200009080CFA07F900E07AE048EA0908C6F876
:100830000080D1F8048008F08058B8F1805F6FD153
:1008400000BFDFF8E481D8F8188048F00108DFF82D
:10085000D891C9F81880C846D8F8188008F001085F
:10086000CDF8008000BF00BF4FEAB9384FEA9309C6
:1008700058F829504FEA83784FEA18794FF00F085B
:1008800008FA09F825EA0805DFF8A081424502D1F7
:100890004FF0000824E0DFF89881424502D14FF084
:1008A00001081DE0DFF88C81424502D14FF00208BB
:1008B00016E0DFF88481424502D14FF003080FE0D3
:1008C000DFF87881424502D14FF0040808E0DFF8F4
:1008D0007081424502D14FF0050801E04FF0060853
:1008E0004FEA83794FEA197908FA09F848EA0505C9
:1008F000DFF850814FEA930948F82950D1F8048075
:1009000008F48038B8F5803F0BD1DFF83C81D8F887
:10091000008048EA0008DFF83091C9F800800AE05A
:1009200075E0DFF82481D8F8008028EA0008DFF8B5
:100930001891C9F80080D1F8048008F40038B8F59F
:10094000003F0ED1DFF8008108F10408D8F80080DC
:1009500048EA0008DFF8F09009F10409C9F80080BE
:100960000DE0DFF8E48008F10408D8F8008028EAF8
:100970000008DFF8D49009F10409C9F80080D1F823
:10098000048008F48018B8F5801F0ED1DFF8B88015
:1009900008F10808D8F8008048EA0008DFF8A890B5
:1009A00009F10809C9F800800DE0DFF89C8008F122
:1009B0000808D8F8008028EA0008DFF88C9009F1D0
:1009C0000809C9F80080D1F8048008F40018B8F5C7
:1009D000001F0ED1DFF8708008F10C08D8F80080F5
:1009E00048EA0008DFF8609009F10C09C9F80080B6
:1009F0000DE0DFF8548008F10C08D8F8008028EAF0
:100A00000008DFF8449009F10C09C9F800805B1C6C
:100A1000D1F8008028FA03F8B8F1000F7FF47CAE1B
:100A2000BDE8F887000011100010024000080140E6
:100A3000000C01400010014000140140001801406A
:100A4000001C014008000140000401400246936878
:100A50000B400BB1012000E00020704710B5C268C8
:100A600021EA020302EA010443EA0443036110BDE0
:100A70000AB1016101E00B0403617047014800689D
:100A800070470000180000200348006803490978F7
:100A90000844014908607047180000202000002029
:100AA00010B50848006840F01000064908600520AD
:100AB00000F080F80F2000F007F800F02BF800207D
:100AC00010BD00000020024070B504460E480078BA
:100AD0004FF47A71B1FBF0F00C490968B1FBF0F505
:100AE000284600F0E3FB08B1012070BD102C07D2AE
:100AF00000222146501E00F01EF80548046001E067
:100B00000120F2E70020F0E720000020080000208C
:100B10001C000020704701460846002809DB00F051
:100B20001F0301229A4043099B0003F1E023C3F80D
:100B3000002100BF70472DE9F05F80460D46164644
:100B4000002700F0E7FE074639462A46334601F003
:100B50000700C0F1070ABAF1040F02D94FF0040AE6
:100B600001E0C0F1070AD14600F1040ABAF1070F0B
:100B700002D24FF0000A01E0A0F1030AD4464FF080
:100B8000010A0AFA09FAAAF1010A0AEA020A0AFAA9
:100B90000CFA4FF0010B0BFA0CFBABF1010B0BEA5B
:100BA000030B4AEA0B042146404600F0BBFEBDE8B9
:100BB000F09F000000BF00F00702064B19684FF6D7
:100BC000FF031940044B0B4343EA0221014B196018
:100BD00000BF70470CED00E00000FA0570B5044658
:100BE0000D460CB9012070BD5A48006800F007009E
:100BF000A8420ED25748006820F007002843554904
:100C000008600846006800F00700A84201D00120F3
:100C1000E9E7207800F0020002281DD1207800F0DA
:100C20000400042805D14C48406840F4E0604A497B
:100C30004860207800F00800082805D14648406840
:100C400040F46050444948604348406820F0F00058
:100C5000A168084340494860207800F0010078B35B
:100C60006068012806D13C48006800F4003090B963
:100C70000120B8E76068022806D13748006800F014
:100C8000007040B90120AEE73348006800F0020070
:100C900008B90120A7E73048406820F003006168E8
:100CA00008432D494860FFF7E9FE064609E0FFF7D3
:100CB000E5FE801B41F28831884202D9032092E789
:100CC00007E02548406800F00C006168B0EB810F38
:100CD000EDD12048006800F00700A8420ED91D4859
:100CE000006820F0070028431A4908600846006899
:100CF00000F00700A84201D0012074E7207800F03E
:100D00000400042807D11448406820F4E060E1683A
:100D1000084311494860207800F00800082808D1ED
:100D20000D48406820F46050216940EAC1000A493A
:100D3000486000F03FF808494968C1F30311074AC9
:100D4000515CC8400649086006480068FFF7BCFED1
:100D5000002048E7002002400010024078240008EC
:100D6000080000201C0000200148006870470000B7
:100D70000800002000B5FFF7F7FF04494968C1F3F8
:100D80000221034A515CC84000BD0000001002402F
:100D90008824000800B5FFF7E7FF04494968C1F35C
:100DA000C221034A515CC84000BD0000001002404F
:100DB00088240008F0B585B00FF26C0C9CE8E010B8
:100DC00001A8A0E8E0101CA52D68009500210022D4
:100DD000002300240020194D696801F00C05F5B1CD
:100DE000042D02D0082D19D101E0154819E001ADFC
:100DF000C1F38346AC5D01F4803555B10F4D6D688C
:100E0000C5F340451DF805200D4D6543B5FBF2F3D4
:100E100002E00C4D04FB05F3184602E000BF084851
:100E200000BF00BF05B0F0BD0203040506070809B6
:100E30000A0B0C0D0E0F10100102000000100240F2
:100E400000127A0000093D00F8B504460CB90120F3
:100E5000F8BD207800F00100002878D0F8484068FC
:100E600000F00C0004280CD0F548406800F00C009D
:100E7000082811D1F248406800F48030B0F5803F76
:100E80000AD1EF48006800F4003000285FD06068A5
:100E900000285CD10120DBE700BF6068B0F5803F2F
:100EA00006D1E748006840F48030E549086028E052
:100EB000606858B9E248006820F48030E049086072
:100EC0000846006820F4802008601AE06068B0F5E9
:100ED000A02F0BD1DA48006840F48020D849086080
:100EE0000846006840F4803008600AE0D448006892
:100EF00020F48030D24908600846006820F4802041
:100F0000086000BF606888B1FFF7B8FD054606E0DD
:100F1000FFF7B4FD401B642801D9032098E7C848B7
:100F2000006800F400300028F2D010E0FFF7A6FDC2
:100F3000054606E0FFF7A2FD401B642801D9032007
:100F400086E7BF48006800F400300028F2D120781E
:100F500000F00200022857D1B948406800F00C00A8
:100F600050B1B748406800F00C00082818D1B448C8
:100F7000406800F4803098B9B148006800F0020081
:100F800020B12069012801D0012061E7AC48006848
:100F900020F0F800616940EAC100A949086033E027
:100FA0002069E8B10120A7490860FFF767FD054601
:100FB00006E0FFF763FD401B022801D9032047E745
:100FC0009F48006800F002000028F2D09C480068AA
:100FD00020F0F800616940EAC1009949086013E017
:100FE000002098490860FFF749FD054606E0FFF735
:100FF00045FD401B022801D9032029E790480068DD
:1010000000F002000028F2D1207800F00800082843
:101010002DD1A069B8B101208B490860FFF72EFDE2
:10102000054606E0FFF72AFD401B022801D90320F0
:101030000EE78348406A00F002000028F2D0012049
:1010400000F01CFB13E000207F490860FFF716FD4D
:10105000054606E0FFF712FD401B022801D90320D8
:10106000F6E67748406A00F002000028F2D12078C6
:1010700000F00400042873D100277148C06900F013
:10108000805070B900BF6E48C06940F080506C4914
:10109000C8610846C06900F08050009000BF00BFE2
:1010A00001276A48006800F48070B0B9674800689A
:1010B00040F4807065490860FFF7E0FC054606E0F3
:1010C000FFF7DCFC401B642801D90320C0E65F4821
:1010D000006800F480700028F2D000BFE0680128AA
:1010E00006D15748006A40F001005549086227E0E0
:1010F000E06858B95248006A20F00100504908627F
:101100000846006A20F00400086219E0E06805283B
:101110000BD14B48006A40F0040049490862084678
:10112000006A40F0010008620AE04548006A20F0C9
:101130000100434908620846006A20F00400086282
:1011400000BFE068A0B1FFF799FC054609E0FFF792
:1011500095FC401B41F28831884202D9032077E692
:1011600022E03748006A00F002000028EFD012E0C9
:10117000FFF784FC054608E0FFF780FC401B41F2C6
:101180008831884201D9032062E62D48006A00F0C8
:1011900002000028F0D1012F05D12948C06920F0B4
:1011A00080502749C86100BFE069C8B3244840683F
:1011B00000F00C00082860D0E069022848D1002027
:1011C00020490866FFF75AFC054606E0FFF756FC83
:1011D000401B022801D903203AE61948006800F0B4
:1011E00000700028F2D1206AB0F5803F07D1144882
:1011F000406820F40030A168084311494860D4E9F0
:10120000080108430E49496821F4741108430C4948
:10121000486001200B490866FFF730FC054607E0EF
:101220003DE0FFF72BFC401B022801D903200FE60D
:101230000348006800F000700028F2D02FE00000A2
:101240000010024000004242800442420070004010
:10125000002014490866FFF711FC054606E0FFF779
:101260000DFC401B022801D90320F1E50E4800685F
:1012700000F000700028F2D111E0E069012800D1EF
:10128000E6E50948466806F48031206A814204D1C7
:1012900006F47011606A814201D00120D8E5002077
:1012A000D6E50000000042420010024070B504463E
:1012B0002546681EB0F1807F01D301200FE0681E33
:1012C0004FF0E02148610F214FF0FF3000F02AFB82
:1012D00000204FF0E021886107200861002070BDE8
:1012E000704700002DE9F047044620680568206833
:1012F000C668206847694FF00008C14605F00F082E
:10130000B8F1000F0AD105F0200038B106F0200036
:1013100020B1204600F0F6F9BDE8F087B8F1000FE3
:1013200071D007F0010018B906F4907000286AD057
:1013300005F0010030B106F4807018B1E06B40F0A8
:101340000100E06305F0040030B107F0010018B1BE
:10135000E06B40F00200E06305F0020030B107F0FE
:10136000010018B1E06B40F00400E06305F00800F4
:1013700048B106F0200010B907F0010018B1E06B89
:1013800040F00800E063E06B68B305F0200028B18E
:1013900006F0200010B1204600F0B4F92068406942
:1013A000C0F38019E06B00F0080010B9B9F1000F2C
:1013B00022D0204600F086F92068406900F0400005
:1013C000B0B12068406920F0400021684861606B3E
:1013D00050B11848616B4863606BFFF7C3F810B1F8
:1013E000606B416B88470CE02046FFF779FF08E00F
:1013F0002046FFF775FF04E02046FFF771FF00204D
:10140000E06389E7FFE705F0800030B106F0800077
:1014100018B1204600F044FA7EE705F0400030B1F4
:1014200006F0400018B1204600F05CF974E700BFF8
:1014300072E70000B116000810B504460CB901208F
:1014400010BDA06900B100E000BF94F8390028B9D0
:10145000002084F83800204600F028F8242084F882
:1014600039002068C06820F400502168C860204618
:1014700000F098F92068006920F490402168086124
:101480002068406920F02A00216848612068C0680F
:1014900040F400502168C8600020E063202084F8F8
:1014A000390084F83A000020CAE7000010B586B081
:1014B00004462849206888424AD100BF00BF264818
:1014C000806940F00400244988610846806900F082
:1014D0000400019000BF00BF00BF00BF00BF08466E
:1014E000806940F0040088610846806900F00400CB
:1014F000019000BF00BF00BF00BF00BF0846806969
:1015000040F4804088610846806900F48040019082
:1015100000BF00BF00BF48150290022003900120C9
:1015200004900320059002A90C48FFF7EFF84FF450
:10153000806002900020039002A90848FFF7E6F8B7
:101540002520FFF7E8FA032211462520FFF7F3FADA
:1015500006B010BD003801400010024000080140F4
:1015600010B5034693F83A0020282FD101B10AB9EB
:10157000012010BD00BF93F83800012801D10220DE
:10158000F7E7012083F8380000BF99629A85DA8571
:101590000020D863222083F83A0000BF002083F89F
:1015A000380000BF1868C06840F480701C68E060B4
:1015B0001868406940F001001C6860611868C068E4
:1015C00040F020001C68E0600020D2E70220D0E755
:1015D00010B504462049206888423BD11F48008846
:1015E00000F4004088BB1D48008800F4804070B1C2
:1015F0001B4800780A2803D000201849088024E0FE
:101600001648008840F40040144908801DE0144842
:1016100000780D2806D11148008840F480400F4919
:10162000088012E00E4800780C490988C1F30D01CA
:101630000C4A505409480088401C08490880084654
:101640000088C72801DD00200880012204490648DF
:10165000FFF786FF10BD0000003801401400002095
:1016600016000020740000203C010020704700BFDD
:10167000FEE700BFFEE770477047000008B5084965
:101680000968C9084FF47A72B1FBF2F14143009145
:1016900000BF00BF00994A1E00920029F9D108BD81
:1016A00008000020704710B5FFF7EEF910BD704735
:1016B00070B505466C6A0020E085E0842046FFF79F
:1016C0000FFE70BD0168C96821F490710268D16095
:1016D0000168496921F0010102685161202180F807
:1016E0003A10704710B504462068C06820F04000EA
:1016F0002168C860202084F839002046FFF7B6FF33
:10170000002010BD70B5044694F83A00222847D155
:10171000A068B0F5805F0CD1206950B90025A66A99
:1017200020684068C0F308003080A06A801CA06276
:1017300015E0A56A0026A068B0F5805F03D0A06818
:1017400028B9206918B920684068287004E020682A
:10175000406800F07F002870A06A401CA062E08D05
:10176000401E80B2E085C8B92068C06820F0200023
:101770002168C8602068C06820F480702168C86053
:101780002068406920F0010021684861202084F829
:101790003A002046FFF71CFF002070BD0020FCE748
:1017A0000220FAE770B504462168096921F4405126
:1017B000E2681143226811612269A16811436269DC
:1017C00041EA02052168C96841F20C62914329434C
:1017D0002268D1602168496921F44071A2691143EE
:1017E000226851612D4A2168914202D1FFF7D2FA55
:1017F00001E0FFF7BFFA00EBC00101EB00116268E6
:101800009200B1FBF2F100EBC00202EB0012636840
:101810009B00B2FBF3F26423B2FBF3F202EBC203D0
:1018200003EB0212A1EB8201322202EB01116422CE
:10183000B1FBF2F101F0F00100EBC00202EB00128B
:1018400063689B00B2FBF3F26423B2FBF3F201EB9B
:10185000021200EBC00101EB001163689B00B1FBB9
:10186000F3F100EBC00303EB00136668B600B3FBB3
:10187000F6F36426B3FBF6F303EBC30606EB0313A0
:10188000A1EB8301322303EB01116423B1FBF3F1DC
:1018900001F00F0111442268916070BD00380140D1
:1018A000014691F83900212828D18868B0F5805F79
:1018B0000BD1086948B90A6A1088C0F308000B68A0
:1018C0005860086A801C086205E00B6A581C0862B0
:1018D00018780B685860C88C401E80B2C88458B90C
:1018E0000868C06820F080000B68D8600868C0688D
:1018F00040F040000B68D860002070470220FCE7F1
:1019000010B50248FFF7EEFC10BD00003C010020BE
:1019100000BFFEE702480068C0F3022070470000E5
:101920000CED00E010B5002804DB0A07130E054A91
:10193000135406E00A07140E034A00F00F031B1F9E
:10194000D45410BD00E400E018ED00E000BF704783
:1019500010B51EA0FEF760FC002000F035FA1F490C
:1019600008700846007878B30846007801281AD035
:10197000022811D0032808D0042824D100BF8101F7
:101980001748FFF76BF800BF1DE000BF2021144887
:10199000FFF764F800BF16E000BF20211148FFF7F1
:1019A0005DF800BF0FE000BF20210D48FFF756F89B
:1019B00000BF00BF20210B48FFF750F800BF0AA06E
:1019C0000B49086000BF00BF10BD000061626F7569
:1019D000745F70726F630D0A000000000400002045
:1019E000000C0140001801406D656E75000000009C
:1019F00000000020024600200BE0084B53F8303076
:101A000033B9064B43F8302003EBC003596002E0C2
:101A1000401C0A28F1D300BF7047000024000020BA
:101A200010B51EA0FEF7F8FB002000F0CDF91F490D
:101A300008700846007878B30846007801281AD064
:101A4000022811D0032808D0042824D100BF810126
:101A50001748FFF703F800BF1DE000BF202114481E
:101A6000FEF7FCFF00BF16E000BF20211148FEF783
:101A7000F5FF00BF0FE000BF20210D48FEF7EEFF8D
:101A800000BF00BF20210B48FEF7E8FF00BF0AA0FF
:101A90000A49086000BF00BF10BD000061647661A4
:101AA0006C75655F70726F630D0A000004000020A2
:101AB000000C014000180140626174000000002029
:101AC00010B51EA0FEF7A8FB002000F07DF91E490E
:101AD00008700846007878B30846007801281AD0C4
:101AE000022811D0032808D0042824D100BF810186
:101AF0001648FEF7B3FF00BF1DE000BF20211348CA
:101B0000FEF7ACFF00BF16E000BF20211048FEF733
:101B1000A5FF00BF0FE000BF20210C48FEF79EFF8D
:101B200000BF00BF20210A48FEF798FF00BF09A0B0
:101B30000A49086000BF00BF10BD00006261745F09
:101B400070726F630D0A000004000020000C014059
:101B5000001801406D7075363035300000000020EF
:101B600000B585B000BF00BF1148806940F0080093
:101B70000F4988610846806900F00800009000BFA6
:101B800000BF00BF88150190012002900390032040
:101B9000049001A90748FEF7B9FD00BF00224FF4E9
:101BA00080710448FEF764FF00BF05B000BD00006F
:101BB00000100240000C014010B51EA0FEF72CFBE7
:101BC000002000F001F91E4908700846007878B33B
:101BD0000846007801281AD0022811D0032808D01E
:101BE000042824D100BF81011648FEF737FF00BF4B
:101BF0001DE000BF20211348FEF730FF00BF16E0B4
:101C000000BF20211048FEF729FF00BF0FE000BFF2
:101C100020210C48FEF722FF00BF00BF20210A4808
:101C2000FEF71CFF00BF09A00949086000BF00BF04
:101C300010BD00006361745F70726F630D0A000075
:101C400004000020000C014000180140706963008E
:101C50000000002001490860704700000C000020CF
:101C600010B504464FF47A7104FB01F000F002F85D
:101C700010BD000070B5034600224FF0E0267569E4
:101C80000D4E366803FB06F44FF0E026B16910E014
:101C90004FF0E026B06988420BD0884202D20E1A7B
:101CA000324402E02E1A0E4432440146A24200D3CE
:101CB00000E0EDE700BF70BD0C00002000BF054A4A
:101CC000126802F04002002AF9D0C2B2014B1B1D7B
:101CD0001A6070470038014000B585B000BF00BFF2
:101CE0003648806940F04000344988610846806980
:101CF00000F04000009000BF00BF00BF00BF00BF69
:101D00000846806940F0400088610846806900F01C
:101D10004000009000BF00BF00BF00BF00BF0846EA
:101D2000806940F0400088610846806900F040000A
:101D3000009000BF00BF00BF00BF00BF0846806921
:101D400040F0040088610846806900F004000090BB
:101D500000BF00BF00BF10200190002002900120B2
:101D600003900320049001A91548FEF7CFFC08203A
:101D7000019000200290012003900320049001A90B
:101D80000F48FEF7C3FC04200190002002900120C0
:101D900003900320049001A90948FEF7B7FC012035
:101DA000019000200290022003900320049001A9DA
:101DB0000448FEF7ABFC05B000BD00000010024077
:101DC000001801400008014070B50446002514B118
:101DD00001202B4908702A480078002834D01021AF
:101DE0002848FEF733FE78B108212648FEF72EFE7C
:101DF00050B104212348FEF729FE28B101212248D1
:101E0000FEF724FE01281FD10A20FFF729FF00203A
:101E10001B49087010211B48FEF718FE00B9012568
:101E200008211848FEF712FE00B9022504211548C2
:101E3000FEF70CFE00B9032501211348FEF706FE4C
:101E400001281BD1042519E010210E48FEF7FEFDE4
:101E5000012813D108210B48FEF7F8FD01280DD108
:101E600004210848FEF7F2FD012807D101210648A8
:101E7000FEF7ECFD10B9012001490870284670BD3D
:101E800021000020001801400008014000B585B085
:101E900000BF00BF1E48806940F008001C498861EF
:101EA0000846806900F00800009000BF00BF00BF36
:101EB00000BF00BF0846806940F0400088610846C6
:101EC000806900F04000009000BF00BF00BF2020EC
:101ED00001900120029003900320049001A90D4875
:101EE000FEF714FC2020019001A90B48FEF70EFC20
:101EF00000BF012220210748FEF7BAFD00BF00BF46
:101F0000012220210448FEF7B3FD00BF05B000BD4B
:101F100000100240000C01400018014010B51EA046
:101F2000FEF77AF90020FFF74FFF1E4908700846B8
:101F3000007878B30846007801281AD0022811D01A
:101F4000032808D0042824D100BF81011648FEF7D9
:101F500085FD00BF1DE000BF20211348FEF77EFD78
:101F600000BF16E000BF20211048FEF777FD00BF3C
:101F70000FE000BF20210C48FEF770FD00BF00BF3E
:101F800020210A48FEF76AFD00BF09A00A4908603F
:101F900000BF00BF10BD00006C65645F70726F63AE
:101FA0000D0A000004000020000C01400018014050
:101FB000616476616C75650000000020FEF770FDBD
:101FC0004FF4E01000F008FA4820FFF743FEFFF757
:101FD0005DFFFFF781FEFFF7C3FD00BF0022202158
:101FE0002B48FEF745FD00BF4FF4E13000F028FA22
:101FF000284929A0FFF7FEFC29492AA0FFF7FAFC8F
:1020000029492AA0FFF7F6FC29492AA0FFF7F2FC8C
:102010002A492BA0FFF7EEFC2A492BA0FFF7EAFC88
:102020002B492CA0FFF7E6FC2B492CA0FFF7E2FC84
:102030002C492DA0FFF7DEFC50212DA0FEF7ECF877
:10204000082131A0FEF7E8F80A2136A0FEF7E4F8EF
:102050001CE0002417E03E4850F8340090B13C48A2
:1020600050F834103B480068FEF77AF950B9384808
:1020700000EBC400406820B1354901EBC401486859
:10208000804702E0641C0A2CE5D300BFE1E70000B2
:10209000000C0140592100086D656E7500000000BC
:1020A000B91B00086361740099220008706963001D
:1020B0003923000873657474696E67001D1F00087A
:1020C0006C656400211A0008616476616C756500B6
:1020D000C11A000862617400F52100086D70753640
:1020E000303530005119000861626F7574000000CE
:1020F00073697A656F662875695F6C6973742920E6
:102100003D2025640D0A000073697A656F662875A5
:10211000695F6C6973745B305D29203D2025640D17
:102120000A00000073697A656F662875695F6C69DB
:102130007374292F73697A656F662875695F6C6996
:1021400073745B305D29203D2025640D0A0000007A
:10215000240000200000002010B51EA0FEF75CF84F
:102160000020FFF731FE1E4908700846007878B35A
:102170000846007801281AD0022811D0032808D078
:10218000042824D100BF81011648FEF767FC00BF78
:102190001DE000BF20211348FEF760FC00BF16E0E1
:1021A00000BF20211048FEF759FC00BF0FE000BF20
:1021B00020210C48FEF752FC00BF00BF20210A4836
:1021C000FEF74CFC00BF09A00949086000BF00BF32
:1021D00010BD00006D656E755F70726F630D0A0053
:1021E00004000020000C01400018014063617400ED
:1021F0000000002010B51EA0FEF70EF80020FFF72B
:10220000E3FD1F4908700846007878B30846007857
:1022100001281AD0022811D0032808D0042824D17C
:1022200000BF81011748FEF719FC00BF1DE000BF89
:1022300020211448FEF712FC00BF16E000BF202149
:102240001148FEF70BFC00BF0FE000BF20210D4836
:10225000FEF704FC00BF00BF20210B48FEF7FEFB89
:1022600000BF0AA00B49086000BF00BF10BD0000FE
:102270006D7075363035305F70726F630D0A000017
:1022800004000020000C01400018014061626F75DD
:10229000740000000000002010B51EA0FDF7BCFF78
:1022A0000020FFF791FD1E4908700846007878B3BA
:1022B0000846007801281AD0022811D0032808D037
:1022C000042824D100BF81011648FEF7C7FB00BFD8
:1022D0001DE000BF20211348FEF7C0FB00BF16E041
:1022E00000BF20211048FEF7B9FB00BF0FE000BF80
:1022F00020210C48FEF7B2FB00BF00BF20210A4896
:10230000FEF7ACFB00BF09A00A49086000BF00BF90
:1023100010BD00007069635F70726F630D0A00008A
:1023200004000020000C0140001801407365747423
:10233000696E67000000002010B51EA0FDF76CFF5D
:102340000020FFF741FD1F4908700846007878B368
:102350000846007801281AD0022811D0032808D096
:10236000042824D100BF81011748FEF777FB00BF86
:102370001DE000BF20211448FEF770FB00BF16E0EF
:1023800000BF20211148FEF769FB00BF0FE000BF2E
:1023900020210D48FEF762FB00BF00BF20210B4843
:1023A000FEF75CFB00BF0AA00A49086000BF00BF3F
:1023B00010BD000073657474696E675F70726F633F
:1023C0000D0A000004000020000C0140001801402C
:1023D0006C6564000000002030B58FB00546012414
:1023E000282105A8FDF794FF14216846FDF790FF0A
:1023F00001200590000406900020079002200C9018
:10240000C1030D910E9505A8FEF71EFD04460CB103
:1024100000BFFEE70F2000900220019000200290F4
:102420004FF4806003900020049002216846FEF77C
:10243000D5FB04460CB100BFFEE70FB030BD000075
:1024400010B5044609480A4908600846446000215E
:102450008160C160016181610C214161FEF7ECFF87
:10246000012204490248FFF77BF810BD0038014003
:102470003C010020160000200000000000000000C9
:10248000010203040607080900000000010203041A
:102490006D656E7500000000B82400080000002083
:1024A000240000006C010008DC2400082400002047
:1024B000BC0700008801000890240008000000000C
:1024C0000024F400000000000000000000000000F4
:0C24D000000000001000000001010000EE
:0400000508000131BD
:00000001FF
